:4000000000100020110000003D0300003D03000080B500AF00F096F980B500AF104B104A12688021C9020A431A60182000F016FC0B4B0B4A11680B4A0A401A600A4B0B4A35
:400040001A600B4B10221A600A4B802212061A60094B0A4A1A600A4B00221A60BD4680BD00010B40FFFFFBFF04010B40060000800C02024008010B40000002400E0000809A
:400080000C020B4080B582B000AF72B6FB1D00221A7023E0FB1D1A78131C5B009B185B00334A9B183B603B681A78597809020A43997809040A43DB781B0613431A1C3B6869
:4000C00019795B791B020B439BB2101C191C00F0B7F9FB1D1A78FB1D01321A70FB1D1B78012BD7D9234B244A1A60244B992212041A60234B992212041A60224B99221204D4
:400100001A60214B204A1278D2B202210A43D2B21A701E4B1D4A1278D2B23C218A43D2B214210A43D2B21A70174B174A1278D2B216210A43D2B21A70154B0C221A60154BFC
:40014000D82212011A60144B40221A60134BC02252031A60124B03221A60124B124A1A60FFF75AFF00F07CF9BD4602B080BDC046801100000C000140EEEE000000500F407A
:4001800010500F4030500F4000700F4001700F40000004400800044000010440080104400003044008030440A40D000010B5064C2378002B07D1054B002B02D0044800E0AB
:4001C00000BF0123237010BDE0000020000000007C11000008B5084B002B03D00748084900E000BF07480368002B03D0064B002B00D0984708BDC046000000007C110000A7
:40020000E4000020C80000200000000090B583B000AFFB1DFF221A70012000F025F9012000F048F9012000F06BF91F4B181C032100F0B0FA1D4B181C032100F0D1FA00F02B
:400240009DF962B600F05CFA021C102313401FD000F0E6FA031C032B0FD1144B1B78012B0BD1124B9B78172B07D1104B5B78FC1D181C00F01DF8031C237000F0E5FA00F085
:4002800069FA094BFA1D12785A70FB1DFF221A7000F036FA021C0123134004D000F0CAFA00F038FACEE7CDE7CC0000200401002080B584B000AF78603B1C0F3300221A704B
:4002C0007B68012B05D022D3022B0CD0032B14D027E0002000F0C8F8012000F0EBF8012000F00EF922E0012000F0BEF8002000F0E1F8012000F004F918E0012000F0B4F8B2
:40030000012000F0D7F8002000F0FAF80EE0012000F0AAF8012000F0CDF8012000F0F0F804E03B1C0F33FF221A70C0463B1C0F331B78181CBD4604B080BDC04680B500AFFF
:40034000FEE7C04680B586B000AF224B7B61224B3B61204B7B6135E03B691B68FB603B695B68BB603B699B683B6000237B600CE0FB681A68BB681A60BB680433BB60FB6840
:400380000433FB607B6804337B607A683B689A42EED13B69DB683B6000237B6008E0BB6800221A60BB680433BB607B6804337B607A683B689A42F2D13B6910333B617B697A
:4003C000013B7B617B69002BC6D100F0A9FEFFF71DFFFEE701000000E011000080B582B000AF00237B600FE07B68032B04D8104B7A689200D35800E00E4B0F4A79688900D9
:400400008B507B6801337B607B682F2BECD9FFF739FE0A4B00221A608023DB058022D205126801210A431A60BD4602B080BDC046000000003D03000000000020C000002038
:4004400080B582B000AF786039607A683B68101C00211A1C00F08AFEBD4602B080BDC04680B500AFBD4680BD80B584B000AF021CFB1D1A700E4B1B68DAB23B1C0F3340211F
:400480008A431A70FB1D1B789B01DAB240231340D9B23B1C0F333A1C0F3212780A431A70034B3A1C0F3212781A60BD4604B080BD0001044080B584B000AF021CFB1D1A7046
:4004C0000E4B1B68DAB23B1C0F3304218A431A70FB1D1B789B00DAB204231340D9B23B1C0F333A1C0F3212780A431A70034B3A1C0F3212781A60BD4604B080BD00000440F6
:4005000080B584B000AF021CFB1D1A700E4B1B68DAB23B1C0F3308218A431A70FB1D1B78DB00DAB208231340D9B23B1C0F333A1C0F3212780A431A70034B3A1C0F32127847
:400540001A60BD4604B080BD0000044080B500AF00F05AF8BD4680BD80B500AF064B064A1268802109060A431A6000F019F800F01FF8BD4680BDC0460000074080B500AF74
:40058000064B1B78002B04D1FFF7E0FF034B01221A70FFF7E1FFBD4680BDC046FC00002080B500AF0B2000F0C3FABD4680BDC04680B500AFBD4680BD80B500AF0E4B1A686A
:4005C00080235B00134012D00C4B1A688023DB0113400CD1084B084A1168094A0A401A60054B054A1268802149000A431A60054B02221A60BD4680BD000007406000074025
:40060000FFFEFFFF6C00074080B500AF254B254A12680C210A431A60234B00221A60234B234A1A60234B244A1A60244B00221A60234B244A1A60244B1F4A1A60234B0022E3
:400640001A600B2000F08AFA0B20032100F01CFA1F4B0B20191C00F0F1F91E4B00221A601D4B00221A601D4B4C22FF321A601C4B00221A601B4B00221A601B4B00221A60D7
:400680001A4B10221A701A4B00221A70194B00221A60194B00221A60184B00221A70BD4680BDC046700007400000074060000740770800400003074007010080040307402F
:4006C000100307401000FE000002074004020740C50B0000C80E0740880E0740480F0740080F0740C80F0740880F0740070100201C010020080100200C0100202801002036
:4007000080B500AF024B1B78DBB2181CBD4680BD1C01002080B582B000AF0B2000F01EFA0B4B1B78DBB21A1C0F2313407B60084B1B78DBB20D229343DAB2054B1A700B2059
:4007400000F0F6F97B68181CBD4602B080BDC0461C01002080B582B000AF0B2000F0FEF90B4B1B78DBB21A1CF02313407B60084B1B78DAB22F231340DAB2054B1A700B2091
:4007800000F0D6F97B68181CBD4602B080BDC0461C01002080B582B000AF786039607B68002B11D00B2000F0D9F9094B7A681A60084B3A681A60084B00221A60074B002249
:4007C0001A600B2000F0B4F9BD4602B080BDC0461801002014010020080100202001002080B582B000AF786039607B68002B0ED00B2000F0B3F9074B7A681A60064B3A680C
:400800001A60064B00221A600B2000F091F9BD4602B080BD24010020100100200C01002080B500AF024B1B68181CBD4680BDC0460C01002080B500AF024B00221A60BD46EC
:4008400080BDC0460801002080B500AF024B00221A60BD4680BDC0460C01002090B585B000AF78603C1C0C3400F050FC031C23707B68022B00D8AFE07B68302B00D9ABE02C
:400880005B4B1B78DBB21A1C7B689A420AD3594A3B1C0F3312781A70574A3B1C0E3312781A703FE0554B1B78DBB21A1C7B689A420AD3534A3B1C0F3312781A70514A3B1C16
:4008C0000E3312781A702DE04F4B1B78DBB21A1C7B689A420AD34D4A3B1C0F3312781A704B4A3B1C0E3312781A701BE0494B1B78DBB21A1C7B689A420AD3474A3B1C0F33DA
:4009000012781A70454A3B1C0E3312781A7009E0434A3B1C0F3312781A70424A3B1C0E3312781A707B68DA1E3B1C0B333E498A5C1A703B1C0B331B782F2B0DD97B682A2B06
:400940000AD93A4B19221A60052000F0D5FB3B1C0D3319221A7007E0344B1B68D9B23B1C0D333F220A401A703A1C0B323B1C0D3312781B789A4208D22C4B7A68033A2A49D3
:400980008A5C1A60052000F0B7FB294B7A68254952181278D2B21A60264B3A1C0F3212781A60254B3A1C0E3212781A60052000F0F5F83A1C0B323B1C0D3312781B789A421F
:4009C00009D91A4B7A68033A17498A5C1A60052000F092FB03E002E0002000F0D5F83B1C0C331B78181C00F095FBBD4605B090BDC0F1FF0FC1F1FF0FC2F1FF0FC3F1FF0FA9
:400A0000C4F1FF0FC5F1FF0FC6F1FF0FC7F1FF0FC8F1FF0FC9F1FF0FCAF1FF0FCBF1FF0FCCF1FF0FCDF1FF0F8C1100002CFF0B4028FF0B401CFF0B4020FF0B4080B584B02D
:400A400000AF021C3960FB1D1A7080239B05FB60FB1D1B781F2B02D9002000F095F8FB1D1B7810339B00FA68D3181B68BB60FB1D1B7810339B00FA68D3183A681A60BB68DA
:400A8000181CBD4604B080BD90B587B000AF0A1CFB1D011C1970BB1D1A70BB1D1B78032B02D9002000F070F8FB1D1B781F2B02D9002000F069F8FB1D1A7803231340DB0072
:400AC00006337B613C1C133400F020FB031C2370FB1D1B789B08DBB29B0014495B181B68FB607B690322111C99400B1CDA43FB681340FB60BB1D1A787B69111C99400B1C82
:400B0000FA681343FB60FB1D1B789B08DBB29B00064A9B18FA681A603B1C13331B78181C00F0F8FABD4607B090BDC04600E400E080B582B000AF021CFB1D1A70064BFA1DF8
:400B400011781F220A400121081C9040021C1A60BD4602B080BDC04600E100E080B582B000AF021CFB1D1A70064BFA1D11781F220A400121081C9040021C1A60BD4602B045
:400B800080BDC04680E100E080B582B000AF021CFB1D1A7001BEBD4602B080BD80B582B000AF021CBB1D1A80BB1D1B88044A12785343181C00F0A0FABD4602B080BDC046E5
:400BC000D800002080B582B000AF00233B60DA4B1B68002B02D0D84B1B689847D74B1A680123134002D0D64B00221A60D54B1B78DAB220231340DBB2002B32D1D24B1A6826
:400C00000223FF3313402CD0CE4B1B78DAB201231340DBB2002B10D0CC4B1B78DBB202229343DAB2C94B1A70C84B1B78DBB209221343DAB2C54B1A7010E0C44B1B78DBB273
:400C400020229343DAB2C14B1A70C04B1B78DBB2702252421343DAB2BC4B1A70B94B00221A70B84B1B78DAB220231340DBB2002B00D00DE2B34B1B78DAB210231340DBB267
:400C8000002B00D1D6E1B04B1A680223134056D0AF4B02221A60AF4B1A680F231A40AD4B196880231B020B4001D0012300E00023D3187B60A84B1B78DBB21A1C7B689A427C
:400CC00008D9A24B1B78DBB204221343DAB29F4B1A700AE0A04B1B78DBB21A1C7B68D21A9E4B1B68D2189D4B1A609C4B1A689C4B1A609C4B00221A60974B00221A709A4B18
:400D0000994A1268802149020A431A60964B964A1168964A0A401A608C4B1B78DBB202229343DAB2894B1A70884B1B78DBB201221343DAB2854B1A70824B10221A70824B42
:400D40001A680823134048D0814B08221A60884B1A6880239B01134019D00DE0854B1A68854B1B68D218854B1B68DBB21370824B1B685A1C804B1A60814B1A680F2313405E
:400D8000ECD17B4B7A4A11687E4A0A401A607E4B1A682023134007D06C4B1B78DBB240221343DAB2694B1A70784B00221A60764B774A1A60654B1B78DBB220229343DAB207
:400DC000624B1A70614B1B78DBB210221343DAB25E4B1A705B4B10221A705B4B1A68402313404DD06B4B01221A606B4B1A681023134012D05B4B10221A60594B1A68574B3F
:400E00001A60524B1B78DBB202221343DAB24F4B1A704C4B12221A702CE0604B1A68564B1B68D31A7B607B68072B03D8574B04221A6014E07B68082B07D14D4B4C4A12681B
:400E4000A02109020A431A6009E0494B484A1268802189010A431A604C4B08221A603B4B1B78DBB220221343DAB2384B1A70354B11221A70364B4A4A1A604A4B01221A6054
:400E8000494B1A680823134036D0444B1A683A4B1B68D31A083B7B607B68082B04D908237B6000233B6013E001233B6010E0314B1A68314B1B68D218304B1B68DBB2137026
:400EC0002D4B1B685A1C2C4B1A607B68013B7B607B68002BEBD13B68002B09D0244B244A1268802109020A431A60284B00221A60254B08221A6066E02B4B1A680423134080
:400F000061D01E4B1B687B601B4B1A68234B1B689A424BD2234B01221A60164B1A68164B1B68D3187A68D2B21A70134B1B685A1C114B1A6044E0C046000100208C0E0740E1
:400F4000880E0740070100204C0F07401C010020400F074008020740280100202001002008010020880F074004020740FFFFFEFF60000740240100200C010020400307402A
:400F800008030740FF5FFFFFC00F0740C80F0740ED0F0000800E07406400074010010020FF0F00006C000740CC0F0740FFF704FB394B1B78DBB240221343DAB2364B1A70D7
:400FC000364B04221A60364B1A68102313405FD026E0344B1A68344B1B689A420ED2334B334A11682F4A12688A181278D2B21A602C4B1B685A1C2B4B1A6011E02B4BFF22DA
:401000001A602C4B1B78DAB220231340DBB2002B06D1284B1B78DBB20133DAB2254B1A70254B1A680F231340082BD2D1234B10221A602DE0224B224A1268520052081A6041
:40104000204B10221A70204B1F4A11681F4A0A401A601D4B1C4A11681D4A0A401A601D4B00221A601C4B00221A60144B1B4A1A600A4B1B4A1A601B4B1B4A1A601B4B1C4AD3
:401080001A600F4B0E4A1268802109060A431A60BD4602B080BDC0461C010020C00F07408C0F0740200100201401002040020740180100202801002008020740800F07403E
:4010C000000007400701002060000740FF5FFFFFFFFCFFFFC80F0740880F0740ED0F0000F3070000400F0740FF0F0000000F074017030000000000000230800804D0C046EB
:401100000138FDD1C046C046C0467047EFF3108072B6704780F310887047C046C046C04670B50E4B0E4D0024ED1AAD101E1CAC4204D0A300F35898470134F8E700F03EF8F6
:40114000084B094D0024ED1AAD101E1CAC4204D0A300F35898470134F8E770BDC8110000C8110000C8110000D0110000031C8218934202D019700133FAE7704700000000B3
:4011800000300F40000400400F400004030405060708090A0B0C0E0F101112131415161718191B1C1D1E1F2021222325262728292A2B2E2F3031323334350000F8B5C04676
:4011C000F8BC08BC9E467047D5010000DD030000F8B5C046F8BC08BC9E467047AD010000F0110000C800002018000000500000000000000001FF170000366E01C05D000088
:40120000180000000000E02E000000000000000000000000000000000000000000000000000000000000000000000000000000000000000000000000000000000000000088
:40124000000000000000000000000000000000000000000000000000000000000000000000000000000000000000000000000000000000000000000000000000000000006E
:40128000000000000000000000000000000000000000000000000000000000000000000000000000000000000000000000000000000000000000000000000000000000002E
:4012C00000000000000000000000000000000000000000000000000000000000000000000000000000000000000000000000000000000000000000000000000000000000EE
:4013000000000000000000000000000000000000000000000000000000000000000000000000000000000000000000000000000000000000000000000000000000000000AD
:0200000490303A
:02000000C47FBB
:0200000490402A
:200000000000000000000000000000000000000000000000000000000000000000000000E0
:0200000490501A
:0C000000000204C81193110104CDD612B7
:0200000490600A
:0100000001FE
:00000001FF