:400000000040002011000000D1040000D104000008B500F05FFAC04608B51222214B1A60302000F0BBFB204A204B1A60204A214B1A60214B214A1A60FE22120220490A60D5
:400040002049196020490A60204A1A60E82149011F4A11601F4A1A60802212061E4B1A608022D2021D4B1A6043231D4A13601D4A13601D4A13601D4A136040221C4B1A60D1
:4000800041221C4B1A6042221B4B1A6007201B4900F0DAFA072000F0B7FA0022184B1A6008BDC046300010400600008004010B40007FBB000C0301400000014043FF0080F4
:4000C0000003014040FF00800403014041FF00800803014042FF008008010B4000010B403801014034010140300101402C0101401C0101401801014008010140E10800008D
:400100000C020B4038B572B60024384D0CE063001B195B00EB1899881A8858880004104300F058FA0134E4B2012CF0D92F49081C0C30283100F01EFAEE2212022C4B1A607C
:40014000EE222C4B1A6099231B042B4A13602B4A2B490A60A02000062A4908602A490A60AA210904294A1160294A1360294A2A4B1A602A4A2A4B1A602A4A2B4B1A602B4AAA
:400180002B4B1A602B4B197802220A431A702A4A11783C208143142001431170197816220A431A70FF23254A1360254A1360254A1360254A254B1A600F23254A1360254AF3
:4001C0001360254A254B1A60D8221201244B1A606722244B1A60244A244B1A600422244B1A60FFF719FF00F0E1F938BD80200000000302400004024000500F400400990031
:4002000010500F4014500F4020500F4024500F4030500F402000070020012040B0000D0060012040F0000E00A001204030000500E001204000700F4001700F4000000440AD
:400240001800044000010440002049000801044018010440000204409204000008020440080304400004044024000900080404401804044010B5064C2378002B07D1054B27
:40028000002B02D0044800E000BF0123237010BD78010020000000007C20000008B5084B002B03D00748084900E000BF07480368002B03D0064B002B00D0984708BDC046A2
:4002C000000000007C2000007C010020C800002000000000F0B5474680B482B062B601F023FA062001216A4601F08EFA00F040FC002000F0B9FB012000F0B6FB022000F0EA
:40030000B3FB032000F0B0FB042000F0ADFB052000F0AAFB062000F0A7FB072000F0A4FB082000F0A1FB092000F09EFB0A2000F09BFB0B2000F098FB00F09EFD00F0E6FC4C
:4003400001F058F80220082101F022F801F0CEF80420082101F098F801F044F90120082101F00EF901F0BAF90820082101F084F90027B84600F068FB002849D100F086FD61
:40038000041C012000F082FDE40180012518EDB2022000F07BFD44012C19E4B2032000F075FD05016419E5B2042000F06FFDC4002C19E4B2052000F069FD85006419E5B2CF
:4003C000062000F063FD44002C19E4B2072000F05DFD24186B461C70082000F057FD041C092000F053FDE40180012518EDB20A2000F04CFD44012C19E4B20B2000F046FD66
:40040000000124186A46547000F02AFE00F07EFC00F084FF051C041C01F0ACFB061C031C012D10D14246002A0DD1002804D16A469378013393703BE0012839D16A46937865
:40044000013B937034E0012B0FD1002F0DD1012C04D16A4693780133937029E0002C27D16A469378013B937022E0002C0FD1012F0DD1012B04D16A4693780133937017E0EF
:40048000002B15D16A469378013B937010E0002B0ED1012F0CD1002C04D16A4693780133937005E0012C03D16A469378013B937000F0C6FF6B46D87001F03EF86A46107151
:4004C00001F0B6F86B465871371CA84652E7C046FEE7C046F8B50F4F0F4E002412E031687368B568221C02E001C901C30432AA42FAD1F168221C01E010C304328A42FBD1B5
:400500001036013F002FEAD101F08AFDFFF7E2FEFEE7C046010000005C22000038B5104B1A6801218A431A6000230E4C0E4D0F4808E0032B02D89A00515900E0211C9A0046
:40054000115001332F2BF4D9FFF7DCFD0022084B1A60034B196801220A431A6038BDC04600001040D10400000000000000000020C0000020F0B500220027FF239C4611E045
:40058000BB00C658F3B26446A64308E054000C192578AD1964782C700132013BDBB2002BF4D10137062FEBD9F0BDC0460323054A1360054A1360054A13600022044B1A60C7
:4005C0007047C046042102403000304030003140000E3F4008B50A1C002101F047FD08BD034B1B685A0001D5012000E00020704700002240024B1968024A0A401A6070473B
:4006000000002240FFFFFFBF1F23184001238340181C014B1860704700E100E01F23184001238340181C014B1860704780E100E01F23184001238340181C014B186070470A
:4006400080E200E001BE704738B5041C0D1C1F2802D90020FFF7F6FFA400024BE4182068256038BD4000002070B5041C0E1E032E02D90020FFF7E6FF1F2C02D90020FFF75C
:40068000E1FF03252540ED00063501F086FAA408A400064BE41823680322AA409343AE40351C1D43256001F07CFA70BD00E400E070B5041C80252D02074E04E0306801F0D0
:4006C00063FA064BE418AC42F8D8034B5868604301F05AFA70BDC046CC0000200080FFFFF0B583B000F0A6F8002844D001F055FA071C0023214E3F25214C07E031682940AE
:40070000E25C914201D1D91C03E001332D2BF5D903211C4B1B68D80606D11A4B1A681F2082430C2002431A60174A1068174B0340174841438020C0010918C90B01394905CC
:40074000490D0B43A02149030B431360114C23680193302001F028FA0F4B19688022D2050A431A60A0204000FFF7A2FF019B2360381C01F016FA03B0F0BDC0462CFF0B4026
:40078000F420000034FF0B400800224000F8C0FF40420F00300010400000224030B587B0051C01F0FAF9041CFFF71AFF002803D0FFF720FF012100E00021104B1B6800931F
:4007C0000F4B1B680193033D0E4B5B5D02930E4B1B68039304AA0D4B049300AB05930C4B1A600C480C4A10601B68012901D1FFF777FF201C01F0D5F907B030BD08010B4087
:4008000000010B40F420000030001040B6EA0000080010401700008004001040044B1A68C0231B021A4201D0012000E00020704700010B40034B1B68002B01DA012000E0FB
:40084000002070470000224008B501F0A6F9044B1968C02212020A431A6001F0A2F908BD00010B4010B501F098F9084B1968084A11408024E4012143196019680A40802138
:4008800009020A431A6001F08CF910BD00010B40FF3FFFFF38B5051C01F07FF9041CFFF7BDFF002803D0FFF7DDFF012200E00022084B1D40084B1868084901400D431D607E
:4008C0001B68012A01D1FFF7BFFF201C01F069F938BDC0460404040010020B40FBFBFBFF10B5244B1B685A0715D5234B1B685A070ED5224B9C69042214401F490868A04303
:400900000860996991439961DB68002B00D098470420FFF7BFFF174B1B685A0518D5164B1B685A0510D5154B9A698020C0001040114A1168814311609969114A0A409A6173
:400940001B69002B00D098478020C000FFF7A2FF084B1B685A030CD5074B1B685A0304D5064B5B69002B00D098478020C002FFF791FF10BD10020B40DC0000209401002051
:40098000FFFBFFFF38B5164B1968C9B2154A11700F220C1C944314490D780F2028402043F024A04309789143014319600F4A104B1A60104A104B1A60104B1968104A0A4023
:4009C000C021C9000A431A601120FFF727FE11200C49FFF739FE11200321FFF745FE38BD00FF28402802002062F1FF0F00020001080028400008A001040028400004024024
:400A0000FFF0FFFF8910000008B500F06BFC00F03FFC0020002100F047FC0020002100F06DFCFF2000F026FC402000F04DFC044B1A6804490A431A601120FFF7E5FD08BD66
:400A40000400284000100880024B1878012318407047C046B00100204000024B181880887047C046B0010020F8B5104C275C2018037B5E009E19F6B29B00DDB201F08DF899
:400A8000BF00E419A26911680F23AB4099430423AB401D1C0D43A16B0B680724B440A3430B60156001F07DF8F8BDC04624210000F8B5194B1D5C1A18147BA700FFB266008F
:400AC000A619F6B2154A125CA9005B189B6919680F20B84081431960022A00D10022012A01D1002700E0062701F057F8AD000A4B5D19AB6B1A680721B1408A43B7403E1CE6
:400B000016431E6001F04DF8AB6D1A680121A1408A431A60F8BDC046242100005802002010B5002403E0201CFFF7C2FF01340B2CF9D910BD03231840024B1A68400210439E
:400B4000186070470400284008B500230749002201E0CA5401330B2BFBD9FFF713FF0020FFF7E8FFFFF7DCFF08BDC0465802002008B50B4B1B7F002B04D1FFF7E5FF012286
:400B8000074B1A77FFF740FF00F022FB0122044B5A77044B19688022D2030A431A6008BDB001002004002840CB080722114001228A40C35C1A4201D0012000E0002070475F
:400BC00038B5041C064D30350134E4B20C2C05D0281C211CFFF7E8FF0028F5D0201C38BDE0000020F8B5041C324B78331A5C9200314BD5583148211CFFF7D6FF304B9D425B
:400C000004D88540281CFF252D04054300F06AFB00F03EFB2B4B185D013880B2002100F043FB294B185D013880B2002100F066FBFF2000F01FFB402000F046FB1120FFF768
:400C4000EDFC80225202214B1A601A1C13681B0CFCD101221E4B1A601120FFF7E9FC1120FFF7D2FC1120FFF7D9FC1A4B19681A4A11401A4A105D1A4A125D120402430A4320
:400C80001A60184E3768184B1F40184B1F431120FFF7BAFC201CFFF7E7FE00F07EFF041C3760002000F070FF084B1D60201C00F078FFF8BD24210000E000002054020020B4
:400CC000FFFFFEFF64020020300200200C002840140028400800284000FF80FF3C0200204802002004002840FF1FDFFF20E0200008B5054B00221A70C2B29A7781221A7088
:400D0000FFF770FF08BDC046B001002010B50B4C00232370FF23A377A07FC0B2FFF750FFA077A37FDBB20B2B07D8217801220A432270A07FC0B2FFF755FF10BDB0010020DF
:400D400038B5041C174B1D68ADB24300164AD3189D80164B78331A5C9200154BD258154B9A4208D81448211CFFF71EFF63000E4AD31805419D80201CFFF79AFE1120FFF715
:400D80004DFC0E4B19680E4A0A40A02109020A431A600C4B19680C4A0A401A601120FFF733FC38BD0C002840B001002024210000E0000020FFFFFEFF540200200400284037
:400DC000FF1FDFFF0800284000FF80FF10B5CB080724214001248C40E1B2002A04D0C01803781943017003E0C01803788B43037010BDC04670B5061C002500240BE0301C32
:400E0000FFF776FFFFF720FE0128FBD0301CFFF723FE2D180134002CF1D0A8B270BDC04670B50A4B1C5C4200094BD15A094BD1521E18002535761E1C243635540648005DF0
:400E400030331855054BD15270BDC0469C210000B4010020D0010020440100209402002010B5041CFFF744FFFFF7EEFD0028FBD1201CFFF7D5FF10BD10B5002403E0201C90
:400E8000FFF7EEFF01340B2CF9D910BDF0B5474680B4041C234B1D5C234B5A19177B234A565D5B5D984622484030211CFFF77CFE002810D01E4B24331B5DBE1BB34223DA1C
:400EC0001B4E301C4030211C0022FFF77FFF30364246725518E0164B24331B5DBE19B3420EDB134A3032535D013BDBB25355002B0AD10F484030211C0122FFF767FF03E01C
:400F00000B4B303342465A5509484030211CFFF74BFE002801D0012000E0002004BC9046F0BDC0469C21000044010020AC020020D001002040184900081880087047C0463A
:400F4000F0B557464E464546E0B4041C374B1B5C9846374B40461B5C99466200354BD55A2423354AD35C002B07D0344E6700B95B281CFFF7DFFF051CB853E1B230482D4A5C
:400F800000F012FF63002F4A9B5AAB4206D800212D4A1155EE1AB6B2012702E05E1BB6B20027002F16D1294A4146525CB24211D2254B1B5D204A1219127E934206D3201C88
:400FC000FFF72EFF0022204B1A5516E001331E4A135512E01A0290461A4908198246027E4046104384466544EB1A1D0A60000D5251460B760022144B1A55B1450CD2002FE6
:401000000AD0FF2E04D9FF220E4B24331A5507E00C4B24331E5503E000220A4B24331A551CBC90469946A246F0BDC0469C21000070020020B40100204401002094020020FD
:401040000C030020D00100207C0200208802002010B5041C00F066F8201CFFF771FF10BD38B50024074D09E0281C211CFFF79CFD002802D0201CFFF7EBFF01340B2CF3D9BA
:4010800038BDC0461001002038B51120FFF7C6FA01221E4B1A601E4B1878C0B2FFF750FE1C4B1B785BB2002B05DA1A4B1A7801218A431A7026E0164C2078C0B2FFF780FD15
:4010C00020702378DBB20B2B05D8114B1878C0B2FFF788FD16E00F4B1A7801218A431A701B785A060ED500220B4B1A70191C0B4D0B4C181C03E0EA5CE254013303700B7878
:40110000012BF8D91120FFF77FFA38BD14002840CE010020B0010020140200202C02002010010020064B1B5C064AD25C51080648C1540648C154D2080549CA547047C046C4
:401140009C210000500100207002002088020020AC020020024B1A6840218A431A60704704002840044B1968044A0A40802189000A431A607047C04608002840FFFCFFFC21
:4011800038B500230D490E4D06E0CA5C5408EC5401325208CA54013302789A42F5D81120FFF73CFA074B1968074A0A4007490A431A601120FFF728FA38BDC0463C02002040
:4011C0004802002008002840FFFCFFFC0002000138B5204B0C221A705A709A703022DA801D4A9A801D4A9A60FFF7B4FF002319491B4C1C4802E09A00105101334A789A4202
:40120000F9D80023184C10201849042202E0E054CA5401330B2BFAD9FFF7A4FF0D4C144D201C291C00F00AFD201C00F019FD201C291C00F003FD201C00F036FD201CFFF71F
:401240009FFF002403E0201CFFF76CFF01340B2CF9D938BD0C03002098090000F0210000E00000200000FF0F30020020640200209A0D0000044A1368002BFCDB0002034B70
:401280001843014B186070470000014040000080034A1368002BFCDB024A014B1A607047000001404000004010B5064B1A680724224000021043C900FF221140084318608B
:4012C00010BDC04600030140044A1368002BFCDB0002034B1843014B186070470000014041000080034A1368002BFCDB024A014B1A607047000001404100004010B5064B79
:401300001A680724224000021043C900FF2211400843186010BDC04604030140024B18688006C00F7047C0460404044008B500F034FC044B196802220A431A6000F031FC50
:4013400008BDC046000020400004000C014B18607047C0464801204010B5041C00F01DFC054B1968054A0A401A601A6814431C6000F017FC10BDC04640012040FFFFFCFF71
:401380000004000C014B18607047C0465401204038B5051C0C1C00F000FCA540024B1D6000F0FFFB38BDC04608002040014B18607047C0467801204010B5C82292040B4BD4
:4013C0001A60C32292000A4B1A600120FFF7EEFF80204002FFF7C0FF80242402201CFFF7CFFF201CFFF7B0FF10BDC046400120406401204008B5064B1B78002B04D1FFF717
:40140000DBFF0122024B1A70FFF790FF08BDC0461502002008B500F0C0FB044B196804220A431A6000F0BDFB08BDC046000020400004000C014B18607047C04688012040DF
:40144000024B18680004000C7047C0468801204010B5041C00F0A1FB054B1968054A0A401A601A6814431C6000F09BFB10BDC04680012040FFFFFCFF0004000C014B186038
:401480007047C0469401204038B5051C0C1C00F084FBA540024B1D6000F083FB38BDC04608002040014B18607047C046B801204010B5C82292040B4B1A60C32292000A4BDA
:4014C0001A600120FFF7EEFF80204002FFF7C0FF80242402201CFFF7CFFF201CFFF7A8FF10BDC04680012040A401204008B5064B1B78002B04D1FFF7DBFF0122024B1A7010
:40150000FFF788FF08BDC0461602002008B500F044FB044B196801220A431A6000F041FB08BDC046000020400004000C014B18607047C04608012040024B18680004000C57
:401540007047C0460801204010B5041C00F025FB054B1968054A0A401A601A6814431C6000F01FFB10BDC04600012040FFFFFCFF0004000C014B18607047C04614012040DA
:4015800038B5051C0C1C00F008FBA540024B1D6000F007FB38BDC04608002040014B18607047C0463801204010B5C82292040B4B1A60C32292000A4B1A600120FFF7EEFF85
:4015C00080204002FFF7C0FF80242402201CFFF7CFFF201CFFF7A8FF10BDC046000120402401204008B5064B1B78002B04D1FFF7DBFF0122024B1A70FFF788FF08BDC04645
:401600001702002008B500F0C8FA044B196808220A431A6000F0C5FA08BDC046000020400004000C014B18607047C046C8012040024B18680004000C7047C046C8012040EA
:4016400010B5041C00F0A9FA054B1968054A0A401A601A6814431C6000F0A3FA10BDC046C0012040FFFFFCFF0004000C014B18607047C046D401204038B5051C0C1C00F053
:401680008CFAA540024B1D6000F08BFA38BDC04608002040014B18607047C046F801204010B5C82292040B4B1A60C32292000A4B1A600120FFF7EEFF80204002FFF7C0FF4D
:4016C00080242402201CFFF7CFFF201CFFF7A8FF10BDC046C0012040E401204008B5064B1B78002B04D1FFF7DBFF0122024B1A70FFF788FF08BDC0461802002008B508203C
:40170000FEF782FF08BDC04608B500F01DF808BD08B5044B1968802212060A431A60FFF7EDFF08BD0000244008B5064B1B78002B04D1FFF7E9FF0122024B1A70FFF7E8FF72
:4017400008BDC0461C02002010B50024194B1C60194A1A4B1A601A4B1A4A13601A4A14601A491B4A11601B4A13601B4B1C600820FEF754FF08200321FEF776FF08201749A0
:40178000FEF762FF164B1C60164B1C605222FF32154B1A60154B1C60154B1C60154B1C60154B1C70154B1C70154B1C80154B00221A7010BD000024400008004060002440E9
:4017C0000701008000032440040324401000FE0010032440000224400402244039180000C80E2440880E2440480F2440080F2440C80F2440880F24404C0300203E03002079
:40180000400300204803002070B5061C0D1C141E0BD00820FEF702FF044B1C60044B1E80044B1D800820FEF7EFFE70BD440300204A0300203C030020F0B5474680B4AE4BD2
:401840001B68002B00D09847AC4B1C88AC4B1D68AC4B1E680223FF331D4235D0AA4B1A68520052081A60A94B1A7820218A431A70197810220A431A70A54B1B68D9060BD436
:40188000A44B1A789D4B1B889A420AD09F4B197808220A431A7004E09C4B197802220A431A709D4B19689D4A0A401A6000239C4A1360974A13609B4A1370934B1968802246
:4018C00012060A431A6011E1F20602D50022964B1A600A23334200D197E0944B1B685F0758D5934B1A688F4B1B78002B17D0012B49D1904B1B88002B0DD001218E4B1960CD
:401900008E4B1B681B19D2B21A700134894B1A88013A1A803AE00222874B1A6036E0884B1B8893422BD90121834B1960854B1B88934202D99B1A9BB200E000237D490B80B8
:40194000072B03D80121774B197014E0082B09D1714B1868A0210902014319600021704B196008E06C4B1868802189010143196008216B4B1960674B1A70141C06E00222FD
:401980006D4B1A6002E00020FEF75CFE04226E4B1A603AE0604B1B68990436D5B2070FD56A4B1B681F2213405B4A10685B49014011600127BC4615E0082301218C4611E050
:4019C0005C4A1388083B9BB21380082BF4D80022944607E039680A190168C9B211700134013B01E0554F5248002BF3D16246002A08D1494B1968802212020A431A6000229A
:401A0000474B1A600C22504B1A60B3074AD5EF0615D50023424A13603D4A13603D4B1B78A34201D1022200E00A222A40374B19780A4320218A431A7000223A4B1A7069067F
:401A40002ED5324B197820220A431A70314B1B781C1C3F4A1268D70612D5394A1288D31A344A13803B4B1968802252020A431A601968394A0A401A601022254B1A6002E089
:401A80000422274B1A600123344A136034491C4A1160344A1068102101431160264A1360174B1D60174B1B6859071FD5214E234A94462D4D301CFF2398462C491F223388E7
:401AC000002B0AD067463F683B191B78DBB22B6001340388013B038001E043462B600B681340082BEBD11022214B1A60034B1C8004BC9046F0BDC046200200204003002075
:401B0000400F2440000E2440000024403E030020880F24404803002060002440FF5FFFFFC80F24404C030020880E2440CC0F244040032440240200206C002440440300202E
:401B40004A0300203C030020C00F2440080324406400244004022440FFFFFEFF800E2440FF0F0000480F24404002244008022440800F2440024B18684006C00F7047C04669
:401B800004040440000000000230800803D00138FDD1C046C046C0467047EFF3108072B6704780F31088704738B5041CFFF7F5FF051C102C05D8104B1A6803218A431A60F0
:401BC00016E0202C07D80C4B1A6803218A4301210A431A600CE0302C07D8074B1A6803218A4302210A431A6002E00020FEF72AFD281CFFF7D6FF38BD30001040F7B59C1839
:401C00000023071C01910092237008268025237800982B432370BB685B6A9847019A904202D22378AB432370013E6D08002EEED12378F82B01D9F8232370F7BD70B5051C9B
:401C40000E1C00242B789C4208D2AB68221C1B68281C311CFFF7D2FF0134F3E770BD000038B5051C00242B789C4218D2AA6811680B5DDB080F2B00D90F230949D268C95CEA
:401C800008481155AA68042B03D9536B211C012202E0536B211C002298470134E3E738BD2822000054020020F0B5051C89B000266B789E4265D2AB68186A805D0290002856
:401CC00001D101210291DA69925D009200982A78904254D29A689B69115C0F22114004910099B00000221A504B002749009C59180591264903905918069125495918079129
:401D000002980099019243189C4238D2AF68AB88FA68E888115D584300F020F93B68195D00F0CEF804991B4B484340005A2802D95B084008FAE7BA6903991B0C1B0453503E
:401D4000154B82081855154BC0081A55144B0F221855144B1A550199059801235B42435206980023435207984352AB689B681B19197801340A401A70019A0232C0E7013602
:401D800096E709B0F0BDC046D002002018030020E80200200000FFFF0003002030030020C4020020B8020020F0B54B0089B003939A5A039C3B4B039FE55A3B4E551B029586
:401DC0003A4DE2527D5B745C0495394D394E7D5B394F05957F5C029D069787686400BF68735C7F5CB4460797EF0FE419EE170F272740AD19019775409D4203D2012B05D0A8
:401E0000013B00E00133FF243F2B00D89C00019E67467B540F2E2BD0002E26D0A54227D8079F049D3C09161EAE4200D92E1C059F151EBD4200D23D1C09220027A2427F412A
:401E4000BC466444321C0A2C14D1AA1B934207D9069FBF08BC469C45924152429B1A00E00133164A5354321C04E0151C019C01E0151C00240C4B019E039F5E540B4B240154
:401E8000DA530B4B0F22DD5383689B685B181D782A401A7083689B6859180B781C430C7009B0F0BDE8020020B8020020D002002018030020C40200200003002030030020C4
:401EC000002934D00123002210B488422CD301242407A14204D2814202D209011B01F8E7E400A14204D2814202D249005B00F8E7884201D3401A1A434C08A04202D3001B0B
:401F00005C0822438C08A04202D3001B9C082243CC08A04202D3001BDC082243002803D01B0901D00909E3E7101C10BC7047002801D00020C04307B4024802A14018029051
:401F400003BDC046D90000000029F0D003B5FFF7B9FF0EBC4243891A1847C046002941D010B4041C4C40A44601230022002900D54942002800D5404288422CD30124240721
:401F8000A14204D2814202D209011B01F8E7E400A14204D2814202D249005B00F8E7884201D3401A1A434C08A04202D3001B5C0822438C08A04202D3001B9C082243CC088E
:401FC000A04202D3001BDC082243002803D01B0901D00909E3E7101C6446002C00D5404210BC7047002806D003DB0020C043400801E08020000607B4024802A140180290BE
:4020000003BDC046190000000029EBD003B5FFF7A7FF0EBC4243891A1847C0467047C04670B50E4B0E4D0024ED1AAD101E1CAC4204D0A300F35898470134F8E700F0FCF8F3
:40204000084B094D0024ED1AAD101E1CAC4204D0A300F35898470134F8E770BD4422000044220000442200004C220000031C8218934202D019700133FAE770470000000070
:4020800000300F40000400400F40000404300F4001310F4001330F400B410F4007420F400B430F4002600F4038803E4058045F011801B40109010A080C040E084404450172
:4020C0004A044E04C2F0D0A0D2300008011006146C407008C00FDC0368046D10761491109A14A004B448DA03DC02DE04EC08020111010000030405060708090A0B0C0E0FA7
:40210000101112131415161718191B1C1D1E1F2021222325262728292A2B2E2F303132333435000000000000000000000101010100010203040506070001020300000240AF
:4021400000010240000202400003024000040240000502400006024000070240080004400801044008020440080304400804044008050440080604400807044000000440B5
:4021800000010440000204400003044000040440000504400006044000070440000102030405060708090A0B010000000200000004000000080000001000000020000000A6
:4021C000400000008000000001000000020000000400000008000000000102030405060708090A0B0101010101010101010101013C020020480200206C010020300200201B
:40220000640200209C210000E0000020D8210000E4210000F50D0000E50B0000590A0000A90B0000CD0D000004040408080808101010101010101010F8B5C046F8BC08BC93
:402240009E4670479D0200001D050000F8B5C046F8BC08BC9E4670477502000070220000C8000020B0000000D801000000000000000000000000C05D80BB0000300000003A
:40228000006CDC02040404000000FF0F0000FF0F0000FF0F0000FF0F0000FF0F0000FF0F0000FF0F0000FF0F0000FF0F0000FF0F0000FF0F0000FF0FFF0F000008000440C6
:4022C000080004400800044008000440080004400800044008000440080004400801044008010440080104400801044005050505050505050505050564646464646464643A
:40230000DC6464DC1E1E1E1E1E1E1E1E1E1E1E1E0100000002020202020202020202020200000000000000000000000000000000000000000000000000000000000000009C
:40234000000000000000000000000000000000000000000000000000000000000000000000000000000000000000000000000000000000000000000000000000000000005D
:40238000000000000000000000000000000000000000000000000000000000000000000000000000000000000000000000000000000000000000000000000000000000001D
:4023C00000000000000000000000000000000000000000000000000000000000000000000000000000000000000000000000000000000000000000000000000000000000DD
:40240000000000000000000000000000000000000000000000000000000000000000000000000000000000000000000000000000000000000000000000000000000000009C
:020000040001F9
:0200000490303A
:02000000D7889F
:0200000490402A
:4000000000000000000000000000000000000000000000000000000000000000000000000000000000000000000000000000000000000000000000000000000000000000C0
:400040000000000000000000000000000000000000000000000000000000000000000000000000000000000000000000000000000000000000000000000000000000000080
:0200000490501A
:0C0000000002112D11A100011137E929A7
:0200000490600A
:0100000001FE
:00000001FF