:400000000040002011000000690400006904000008B500F02BFAC04608B51222204B1A60302000F087FB1F4A1F4B1A601F4A204B1A60204B204A1A60FE2212021F490A6015
:400040001F4919601F490A601F4A1A60E82149011E4A11601E4A1A60802212061D4B1A608022D2021C4B1A6043231C4A13601C4A13601C4A136040221B4B1A6041221B4BED
:400080001A6042221A4B1A6007201A4900F0A8FA072000F085FA0022174B1A6008BDC046300010400600008004010B40007FBB000C0301400000014043FF008000030140E1
:4000C00040FF00800403014041FF00800803014042FF008008010B4000010B4034010140300101402C0101401C0101401801014008010140790800000C020B4038B572B645
:400100000024384D0CE063001B195B00EB1899881A8858880004104300F028FA0134E4B2012CF0D92F49081C0C30283100F0EEF9EE2212022C4B1A60EE222C4B1A6099238E
:400140001B042B4A13602B4A2B490A60A02000062A4908602A490A60A0210903294A1160294A1360294A2A4B1A602A4A2A4B1A602A4A2B4B1A602B4B197802220A431A70E5
:40018000294A11783C208143142001431170197816220A431A70FF23244A1360244A1360CF22244B1A609022D203234B1A600F23224A1360224A1360224A234B1A60D8221F
:4001C0001201224B1A606722214B1A60214A224B1A600422214B1A60FFF71EFF00F0B2F938BDC046301F0000000302400004024000500F400400990010500F4014500F4017
:4002000020500F4024500F4030500F4020000300200120406000040060012040B0000E00A001204000700F4001700F400000044018000440000104400801044018010440D7
:40024000000204409204000008020440080304400004044024000900080404401804044010B5064C2378002B07D1054B002B02D0044800E000BF0123237010BD78010020D6
:40028000000000002C1F000008B5084B002B03D00748084900E000BF07480368002B03D0064B002B00D0984708BDC046000000002C1F00007C010020C80000200000000028
:4002C000F0B5474680B482B062B601F08DF9062001216A4601F0F8F900F016FC002000F08FFB012000F08CFB022000F089FB032000F086FB042000F083FB052000F080FB7D
:40030000062000F07DFB072000F07AFB082000F077FB092000F074FB0A2000F071FB0B2000F06EFB00F074FD00F0BCFC01F02EF80220082100F0F8FF01F0A4F8042008215B
:4003400001F06EF801F01AF90120082101F0E4F800229046002700F043FB002849D100F061FD041C012000F05DFDE40180012518EDB2022000F056FD44012C19E4B20320B9
:4003800000F050FD05016419E5B2042000F04AFDC4002C19E4B2052000F044FD85006419E5B2062000F03EFD44002C19E4B2072000F038FD24186B461C70082000F032FD81
:4003C000041C092000F02EFDE40180012518EDB20A2000F027FD44012C19E4B20B2000F021FD000124186A46547000F005FE00F059FC01F0D3F8041C061C01F0D7F8051CF8
:40040000031C002C0FD1012F0DD1012804D16A4693780133937018E0002816D16A469378013B937011E0012B0FD14346002B0CD1012E04D16A4693780133937005E0002EFB
:4004400003D16A469378013B937000F049FF6B46D87000F0C1FF6A46107101F039F86B465871A846271C76E7FEE7C046F8B50F4F0F4E002412E031687368B568221C02E058
:4004800001C901C30432AA42FAD1F168221C01E010C304328A42FBD11036013F002FEAD101F016FDFFF70CFFFEE7C046010000000421000038B5104B1A6801218A431A60EF
:4004C00000230E4C0E4D0F4808E0032B02D89A00515900E0211C9A00115001332F2BF4D9FFF70CFE0022084B1A60034B196801220A431A6038BDC0460000104069040000C6
:400500000000000000000020C0000020F0B500220027FF239C4611E0BB00C658F3B26446A64308E054000C192578AD1964782C700132013BDBB2002BF4D10137062FEBD96E
:40054000F0BDC0460323054A1360054A1360054A13600022044B1A607047C046042102403000304030003140000E3F4008B50A1C002101F0D3FC08BD034B1B685A0001D5F5
:40058000012000E00020704700002240024B1968024A0A401A60704700002240FFFFFFBF1F23184001238340181C014B1860704700E100E01F23184001238340181C014B5C
:4005C0001860704780E100E01F23184001238340181C014B1860704780E200E001BE704738B5041C0D1C1F2802D90020FFF7F6FFA400024BE4182068256038BD40000020F1
:4006000070B5041C0E1E032E02D90020FFF7E6FF1F2C02D90020FFF7E1FF03252540ED00063501F012FAA408A400064BE41823680322AA409343AE40351C1D43256001F052
:4006400008FA70BD00E400E070B5041C80252D02074E04E0306801F0EFF9064BE418AC42F8D8034B5868604301F0E6F970BDC046CC0000200080FFFFF0B583B000F0A6F835
:40068000002844D001F0E1F9071C0023214E3F25214C07E031682940E25C914201D1D91C03E001332D2BF5D903211C4B1B68D80606D11A4B1A681F2082430C2002431A6016
:4006C000174A1068174B0340174841438020C0010918C90B01394905490D0B43A02149030B431360114C23680193302001F0B4F90F4B19688022D2050A431A60A0204000C4
:40070000FFF7A2FF019B2360381C01F0A2F903B0F0BDC0462CFF0B409C1F000034FF0B400800224000F8C0FF40420F00300010400000224030B587B0051C01F086F9041CAD
:40074000FFF71AFF002803D0FFF720FF012100E00021104B1B6800930F4B1B680193033D0E4B5B5D02930E4B1B68039304AA0D4B049300AB05930C4B1A600C480C4A106032
:400780001B68012901D1FFF777FF201C01F061F907B030BD08010B4000010B409C1F000030001040B6EA0000080010401700008004001040044B1A68C0231B021A4201D067
:4007C000012000E00020704700010B40034B1B68002B01DA012000E0002070470000224008B501F032F9044B1968C02212020A431A6001F02EF908BD00010B4010B501F07F
:4008000024F9084B1968084A11408024E4012143196019680A40802109020A431A6001F018F910BD00010B40FF3FFFFF38B5051C01F00BF9041CFFF7BDFF002803D0FFF763
:40084000DDFF012200E00022084B1D40084B1868084901400D431D601B68012A01D1FFF7BFFF201C01F0F5F838BDC0460404040010020B40FBFBFBFF10B5244B1B685A07DB
:4008800015D5234B1B685A070ED5224B9C69042214401F490868A0430860996991439961DB68002B00D098470420FFF7BFFF174B1B685A0518D5164B1B685A0510D5154B8C
:4008C0009A698020C0001040114A1168814311609969114A0A409A611B69002B00D098478020C000FFF7A2FF084B1B685A030CD5074B1B685A0304D5064B5B69002B00D016
:4009000098478020C002FFF791FF10BD10020B40DC00002094010020FFFBFFFF38B5164B1968C9B2154A11700F220C1C944314490D780F2028402043F024A043097891439B
:40094000014319600F4A104B1A60104A104B1A60104B1968104A0A40C021C9000A431A601120FFF727FE11200C49FFF739FE11200321FFF745FE38BD00FF2840240200203D
:4009800062F1FF0F00020001080028400008A0010400284000040240FFF0FFFF2110000008B500F06BFC00F03FFC0020002100F047FC0020002100F06DFCFF2000F026FC6C
:4009C000402000F04DFC044B1A6804490A431A601120FFF7E5FD08BD0400284000100880024B1878012318407047C046B00100204000024B181880887047C046B00100206D
:400A0000F8B5104C275C2018037B5E009E19F6B29B00DDB201F019F8BF00E419A26911680F23AB4099430423AB401D1C0D43A16B0B680724B440A3430B60156001F009F861
:400A4000F8BDC046CC1F0000F8B5194B1D5C1A18147BA700FFB26600A619F6B2154A125CA9005B189B6919680F20B84081431960022A00D10022012A01D1002700E006273E
:400A800000F0E3FFAD000A4B5D19AB6B1A680721B1408A43B7403E1C16431E6000F0D9FFAB6D1A680121A1408A431A60F8BDC046CC1F00005402002010B5002403E0201C76
:400AC000FFF7C2FF01340B2CF9D910BD03231840024B1A6840021043186070470400284008B500230749002201E0CA5401330B2BFBD9FFF713FF0020FFF7E8FFFFF7DCFF52
:400B000008BDC0465402002008B50B4B1B7F002B04D1FFF7E5FF0122074B1A77FFF740FF00F022FB0122044B5A77044B19688022D2030A431A6008BDB00100200400284052
:400B4000CB080722114001228A40C35C1A4201D0012000E00020704738B5041C064D30350134E4B20C2C05D0281C211CFFF7E8FF0028F5D0201C38BDE0000020F8B5041C31
:400B8000324B78331A5C9200314BD5583148211CFFF7D6FF304B9D4204D88540281CFF252D04054300F06AFB00F03EFB2B4B185D013880B2002100F043FB294B185D0138BA
:400BC00080B2002100F066FBFF2000F01FFB402000F046FB1120FFF7EDFC80225202214B1A601A1C13681B0CFCD101221E4B1A601120FFF7E9FC1120FFF7D2FC1120FFF7D8
:400C0000D9FC1A4B19681A4A11401A4A105D1A4A125D120402430A431A60184E3768184B1F40184B1F431120FFF7BAFC201CFFF7E7FE00F00AFF041C3760002000F0FCFE44
:400C4000084B1D60201C00F004FFF8BDCC1F0000E000002050020020FFFFFEFF600200202C0200200C002840140028400800284000FF80FF3802002044020020040028408E
:400C8000FF1FDFFF20E0200008B5054B00221A70C2B29A7781221A70FFF770FF08BDC046B001002010B50B4C00232370FF23A377A07FC0B2FFF750FFA077A37FDBB20B2BCC
:400CC00007D8217801220A432270A07FC0B2FFF755FF10BDB001002038B5041C174B1D68ADB24300164AD3189D80164B78331A5C9200154BD258154B9A4208D81448211CB0
:400D0000FFF71EFF63000E4AD31805419D80201CFFF79AFE1120FFF74DFC0E4B19680E4A0A40A02109020A431A600C4B19680C4A0A401A601120FFF733FC38BD0C0028409D
:400D4000B0010020CC1F0000E0000020FFFFFEFF5002002004002840FF1FDFFF0800284000FF80FF10B5CB080724214001248C40E1B2002A04D0C01803781943017003E04B
:400D8000C01803788B43037010BDC04670B5061C002500240BE0301CFFF776FFFFF720FE0128FBD0301CFFF723FE2D180134002CF1D0A8B270BDC04670B50A4B1C5C420007
:400DC000094BD15A094BD1521E18002535761E1C243635540648005D30331855054BD15270BDC04644200000B4010020D0010020440100209002002010B5041CFFF744FF5A
:400E0000FFF7EEFD0028FBD1201CFFF7D5FF10BD10B5002403E0201CFFF7EEFF01340B2CF9D910BDF0B5474680B4041C234B1D5C234B5A19177B234A565D5B5D9846224814
:400E40004030211CFFF77CFE002810D01E4B24331B5DBE1BB34223DA1B4E301C4030211C0022FFF77FFF30364246725518E0164B24331B5DBE19B3420EDB134A3032535D51
:400E8000013BDBB25355002B0AD10F484030211C0122FFF767FF03E00B4B303342465A5509484030211CFFF74BFE002801D0012000E0002004BC9046F0BDC0464420000061
:400EC00044010020A8020020D001002040184900081880087047C046F0B557464E464546E0B4041C374B1B5C9846374B40461B5C99466200354BD55A2423354AD35C002B51
:400F000007D0344E6700B95B281CFFF7DFFF051CB853E1B230482D4A00F09EFE63002F4A9B5AAB4206D800212D4A1155EE1AB6B2012702E05E1BB6B20027002F16D1294AE6
:400F40004146525CB24211D2254B1B5D204A1219127E934206D3201CFFF72EFF0022204B1A5516E001331E4A135512E01A0290461A4908198246027E404610438446654459
:400F8000EB1A1D0A60000D5251460B760022144B1A55B1450CD2002F0AD0FF2E04D9FF220E4B24331A5507E00C4B24331E5503E000220A4B24331A551CBC90469946A2467A
:400FC000F0BDC046442000006C020020B4010020440100209002002008030020D0010020780200208402002010B5041C00F066F8201CFFF771FF10BD38B50024074D09E014
:40100000281C211CFFF79CFD002802D0201CFFF7EBFF01340B2CF3D938BDC0461001002038B51120FFF7C6FA01221E4B1A601E4B1878C0B2FFF750FE1C4B1B785BB2002B6B
:4010400005DA1A4B1A7801218A431A7026E0164C2078C0B2FFF780FD20702378DBB20B2B05D8114B1878C0B2FFF788FD16E00F4B1A7801218A431A701B785A060ED5002245
:401080000B4B1A70191C0B4D0B4C181C03E0EA5CE254013303700B78012BF8D91120FFF77FFA38BD14002840CE010020B0010020140200202802002010010020064B1B5C68
:4010C000064AD25C51080648C1540648C154D2080549CA547047C04644200000500100206C02002084020020A8020020024B1A6840218A431A60704704002840044B196813
:40110000044A0A40802189000A431A607047C04608002840FFFCFFFC38B500230D490E4D06E0CA5C5408EC5401325208CA54013302789A42F5D81120FFF73CFA074B196868
:40114000074A0A4007490A431A601120FFF728FA38BDC046380200204402002008002840FFFCFFFC0002000138B5204B0C221A705A709A703022DA801D4A9A801D4A9A60DE
:40118000FFF7B4FF002319491B4C1C4802E09A00105101334A789A42F9D80023184C10201849042202E0E054CA5401330B2BFAD9FFF7A4FF0D4C144D201C291C00F096FCB1
:4011C000201C00F0A5FC201C291C00F08FFC201C00F0C2FC201CFFF79FFF002403E0201CFFF76CFF01340B2CF9D938BD080300209809000098200000E00000200000FF0F03
:401200002C020020600200209A0D0000044A1368002BFCDB0002034B1843014B186070470000014040000080034A1368002BFCDB024A014B1A6070470000014040000040F1
:4012400010B5064B1A680724224000021043C900FF2211400843186010BDC04600030140044A1368002BFCDB0002034B1843014B186070470000014041000080034A136824
:40128000002BFCDB024A014B1A607047000001404100004010B5064B1A680724224000021043C900FF2211400843186010BDC0460403014008B500F0C8FB044B19680222AA
:4012C0000A431A6000F0C5FB08BDC046000020400004000C014B18607047C04648012040024B18680004000C7047C0464801204010B5041C00F0A9FB054B1968054A0A40EC
:401300001A601A6814431C6000F0A3FB10BDC04640012040FFFFFCFF0004000C014B18607047C0465401204038B5051C0C1C00F08CFBA540024B1D6000F08BFB38BDC046D0
:4013400008002040014B18607047C0467801204010B5C42292040B4B1A60C32292000A4B1A600120FFF7EEFF80204002FFF7C0FF80242402201CFFF7CFFF201CFFF7A8FF16
:4013800010BDC046400120406401204008B5064B1B78002B04D1FFF7DBFF0122024B1A70FFF788FF08BDC0461502002008B500F04CFB044B196804220A431A6000F049FB25
:4013C00008BDC046000020400004000C014B18607047C04688012040024B18680004000C7047C0468801204010B5041C00F02DFB054B1968054A0A401A601A6814431C608F
:4014000000F027FB10BDC04680012040FFFFFCFF0004000C014B18607047C0469401204038B5051C0C1C00F010FBA540024B1D6000F00FFB38BDC04608002040014B186066
:401440007047C046B801204010B5C42292040B4B1A60C32292000A4B1A600120FFF7EEFF80204002FFF7C0FF80242402201CFFF7CFFF201CFFF7A8FF10BDC046800120404D
:40148000A401204008B5064B1B78002B04D1FFF7DBFF0122024B1A70FFF788FF08BDC0461602002008B500F0D0FA044B196801220A431A6000F0CDFA08BDC0460000204029
:4014C0000004000C014B18607047C04608012040024B18680004000C7047C0460801204010B5041C00F0B1FA054B1968054A0A401A601A6814431C6000F0ABFA10BDC046CE
:4015000000012040FFFFFCFF0004000C014B18607047C0461401204038B5051C0C1C00F094FAA540024B1D6000F093FA38BDC04608002040014B18607047C04638012040EE
:4015400010B5C42292040B4B1A60C32292000A4B1A600120FFF7EEFF80204002FFF7C0FF80242402201CFFF7CFFF201CFFF7A8FF10BDC046000120402401204008B5064B0F
:401580001B78002B04D1FFF7DBFF0122024B1A70FFF788FF08BDC04617020020024B18688006C00F7047C04604040440024B18684006C00F7047C0460404044008B5082052
:4015C000FEF7EEFF08BDC04608B500F01DF808BD08B5044B1968802212060A431A60FFF7EDFF08BD0000244008B5064B1B78002B04D1FFF7E9FF0122024B1A70FFF7E8FF48
:4016000008BDC0461802002010B50024194B1C60194A1A4B1A601A4B1A4A13601A4A14601A491B4A11601B4A13601B4B1C600820FEF7C0FF08200321FEF7E2FF082017490D
:40164000FEF7CEFF164B1C60164B1C605222FF32154B1A60154B1C60154B1C60154B1C60154B1C70154B1C70154B1C80154B00221A7010BD000024400008004060002440BE
:401680000701008000032440040324401000FE00100324400002244004022440F9160000C80E2440880E2440480F2440080F2440C80F2440880F2440480300203A03002004
:4016C0003C0300204403002070B5061C0D1C141E0BD00820FEF76EFF044B1C60044B1E80044B1D800820FEF75BFF70BD400300204603002038030020F0B5474680B4AE4B4F
:401700001B68002B00D09847AC4B1C88AC4B1D68AC4B1E680223FF331D4235D0AA4B1A68520052081A60A94B1A7820218A431A70197810220A431A70A54B1B68D9060BD477
:40174000A44B1A789D4B1B889A420AD09F4B197808220A431A7004E09C4B197802220A431A709D4B19689D4A0A401A6000239C4A1360974A13609B4A1370934B1968802287
:4017800012060A431A6011E1F20602D50022964B1A600A23334200D197E0944B1B685F0758D5934B1A688F4B1B78002B17D0012B49D1904B1B88002B0DD001218E4B19600E
:4017C0008E4B1B681B19D2B21A700134894B1A88013A1A803AE00222874B1A6036E0884B1B8893422BD90121834B1960854B1B88934202D99B1A9BB200E000237D490B80FA
:40180000072B03D80121774B197014E0082B09D1714B1868A0210902014319600021704B196008E06C4B1868802189010143196008216B4B1960674B1A70141C06E002223E
:401840006D4B1A6002E00020FEF7C8FE04226E4B1A603AE0604B1B68990436D5B2070FD56A4B1B681F2213405B4A10685B49014011600127BC4615E0082301218C4611E025
:401880005C4A1388083B9BB21380082BF4D80022944607E039680A190168C9B211700134013B01E0554F5248002BF3D16246002A08D1494B1968802212020A431A600022DB
:4018C000474B1A600C22504B1A60B3074AD5EF0615D50023424A13603D4A13603D4B1B78A34201D1022200E00A222A40374B19780A4320218A431A7000223A4B1A706906C1
:401900002ED5324B197820220A431A70314B1B781C1C3F4A1268D70612D5394A1288D31A344A13803B4B1968802252020A431A601968394A0A401A601022254B1A6002E0CA
:401940000422274B1A600123344A136034491C4A1160344A1068102101431160264A1360174B1D60174B1B6859071FD5214E234A94462D4D301CFF2398462C491F22338828
:40198000002B0AD067463F683B191B78DBB22B6001340388013B038001E043462B600B681340082BEBD11022214B1A60034B1C8004BC9046F0BDC0461C0200203C030020BE
:4019C000400F2440000E2440000024403A030020880F24404403002060002440FF5FFFFFC80F244048030020880E2440CC0F244040032440200200206C0024404003002084
:401A00004603002038030020C00F2440080324406400244004022440FFFFFEFF800E2440FF0F0000480F24404002244008022440800F2440000000000230800803D001388B
:401A4000FDD1C046C046C0467047EFF3108072B6704780F31088704738B5041CFFF7F5FF051C102C05D8104B1A6803218A431A6016E0202C07D80C4B1A6803218A43012136
:401A80000A431A600CE0302C07D8074B1A6803218A4302210A431A6002E00020FEF79EFD281CFFF7D6FF38BD30001040F7B59C180023071C019100922370082680252378A8
:401AC00000982B432370BB685B6A9847019A904202D22378AB432370013E6D08002EEED12378F82B01D9F8232370F7BD70B5051C0E1C00242B789C4208D2AB68221C1B68CB
:401B0000281C311CFFF7D2FF0134F3E770BD000038B5051C00242B789C4218D2AA6811680B5DDB080F2B00D90F230949D268C95C08481155AA68042B03D9536B211C0122B7
:401B400002E0536B211C002298470134E3E738BDD020000050020020F0B5051C89B000266B789E4265D2AB68186A805D0290002801D101210291DA69925D009200982A7861
:401B8000904254D29A689B69115C0F22114004910099B00000221A504B002749009C59180591264903905918069125495918079102980099019243189C4238D2AF68AB889C
:401BC000FA68E888115D584300F020F93B68195D00F0CEF804991B4B484340005A2802D95B084008FAE7BA6903991B0C1B045350154B82081855154BC0081A55144B0F2255
:401C00001855144B1A550199059801235B42435206980023435207984352AB689B681B19197801340A401A70019A0232C0E7013696E709B0F0BDC046CC02002014030020B3
:401C4000E40200200000FFFFFC0200202C030020C0020020B4020020F0B54B0089B003939A5A039C3B4B039FE55A3B4E551B02953A4DE2527D5B745C0495394D394E7D5B11
:401C8000394F05957F5C029D069787686400BF68735C7F5CB4460797EF0FE419EE170F272740AD19019775409D4203D2012B05D0013B00E00133FF243F2B00D89C00019EDA
:401CC00067467B540F2E2BD0002E26D0A54227D8079F049D3C09161EAE4200D92E1C059F151EBD4200D23D1C09220027A2427F41BC466444321C0A2C14D1AA1B934207D9CF
:401D0000069FBF08BC469C45924152429B1A00E00133164A5354321C04E0151C019C01E0151C00240C4B019E039F5E540B4B2401DA530B4B0F22DD5383689B685B181D7848
:401D40002A401A7083689B6859180B781C430C7009B0F0BDE4020020B4020020CC02002014030020C0020020FC0200202C030020002934D00123002210B488422CD30124D7
:401D80002407A14204D2814202D209011B01F8E7E400A14204D2814202D249005B00F8E7884201D3401A1A434C08A04202D3001B5C0822438C08A04202D3001B9C08224339
:401DC000CC08A04202D3001BDC082243002803D01B0901D00909E3E7101C10BC7047002801D00020C04307B4024802A14018029003BDC046D90000000029F0D003B5FFF795
:401E0000B9FF0EBC4243891A1847C046002941D010B4041C4C40A44601230022002900D54942002800D5404288422CD301242407A14204D2814202D209011B01F8E7E4005F
:401E4000A14204D2814202D249005B00F8E7884201D3401A1A434C08A04202D3001B5C0822438C08A04202D3001B9C082243CC08A04202D3001BDC082243002803D01B09CE
:401E800001D00909E3E7101C6446002C00D5404210BC7047002806D003DB0020C043400801E08020000607B4024802A14018029003BDC046190000000029EBD003B5FFF7C8
:401EC000A7FF0EBC4243891A1847C0467047C04670B50E4B0E4D0024ED1AAD101E1CAC4204D0A300F35898470134F8E700F0F8F8084B094D0024ED1AAD101E1CAC4204D01D
:401F0000A300F35898470134F8E770BDEC200000EC200000EC200000F4200000031C8218934202D019700133FAE770470000000000300F40000400400F40000404300F400D
:401F400001310F4001330F4007410F4007420F400B430F4002600F4038803E4058045F011801B40109400E0245404A01C2C0D020D2100144040206026C407008C00FDC037E
:401F800069046C0172027940900291449A02B448DA03DC05EC08020111010000030405060708090A0B0C0E0F101112131415161718191B1C1D1E1F20212223252627282945
:401FC0002A2B2E2F303132333435000000000000000000000101010100010203040506070001020300000240000102400002024000030240000402400005024000060240F7
:4020000000070240080004400801044008020440080304400804044008050440080604400807044000000440000104400002044000030440000404400005044000060440EA
:4020400000070440000102030405060708090A0B010000000200000004000000080000001000000020000000400000008000000001000000020000000400000008000000C5
:40208000000102030405060708090A0B01010101010101010101010138020020440200206C0100202C0200206002002044200000E0000020802000008C2000008D0D00006B
:4020C0007D0B0000F1090000410B0000650D000004040408080808101010101010101010F8B5C046F8BC08BC9E46704789020000B5040000F8B5C046F8BC08BC9E46704714
:402100006102000018210000C8000020B0000000D801000000000000000000000000C05D80BB000030000000006CDC02040404000000FF0F0000FF0F0000FF0F0000FF0F7C
:402140000000FF0F0000FF0F0000FF0F0000FF0F0000FF0F0000FF0F0000FF0F0000FF0FFF0F000008000440080004400800044008000440080004400800044008000440CD
:402180000800044008010440080104400801044008010440050505050505050505050505DCDCDCDCDCDCDCDCDCDCDCDC1E1E1E1E1E1E1E1E1E1E1E1E0100000002020202A2
:4021C00002020202020202020000000000000000000000000000000000000000000000000000000000000000000000000000000000000000000000000000000000000000CF
:40220000000000000000000000000000000000000000000000000000000000000000000000000000000000000000000000000000000000000000000000000000000000009E
:40224000000000000000000000000000000000000000000000000000000000000000000000000000000000000000000000000000000000000000000000000000000000005E
:40228000000000000000000000000000000000000000000000000000000000000000000000000000000000000000000000000000000000000000000000000000000000001E
:4022C00000000000000000000000000000000000000000000000000000000000000000000000000000000000000000000000000000000000000000000000000000000000DE
:020000040001F9
:0200000490303A
:0200000063CCCF
:0200000490402A
:4000000000000000000000000000000000000000000000000000000000000000000000000000000000000000000000000000000000000000000000000000000000000000C0
:400040000000000000000000000000000000000000000000000000000000000000000000000000000000000000000000000000000000000000000000000000000000000080
:0200000490501A
:0C0000000002112D11A100011137756DD7
:0200000490600A
:0100000001FE
:00000001FF